:0300000002006E8D
:0C006E00787FE4F6D8FD75812002007A4E
:0C007A00C200C20112004712000380FB0C
:10005B0001020408102040803F065B4F666D7D0750
:03006B007F6FFFA5
:0B0086000000007F0B7EBEDEFEDFFCF2
:01009100224C
:10004700A2009286A2019284E5A0541F44A0F5A0C5
:0400570053A01F2271
:100003007580FFE5A0541F44E0F5A053A01FE50849
:1000130090005B93F580E5A0541F44C0F5A053A066
:100023001FE50890006393F4F580E5A0541F44E0B6
:10003300F5A053A01F0508E508C394084003E4F5A1
:040043000802008629
:00000001FF
